:020000040800F2
:10000000E00E0020C9010008CD07000885050008A2
:100010005507000841030008EB1E0008000000001F
:10002000000000000000000000000000150F0008A4
:10003000D903000800000000C30D000829100008C3
:10004000E3010008E3010008E3010008E301000800
:10005000E3010008E3010008E3010008E3010008F0
:10006000E3010008E3010008E3010008E3010008E0
:10007000E3010008E3010008E3010008E3010008D0
:10008000E3010008E3010008E3010008E3010008C0
:10009000E3010008E3010008E3010008E3010008B0
:1000A000E3010008E3010008E3010008E3010008A0
:1000B000E3010008E3010008E5100008E30100087F
:1000C000E3010008E3010008E3010008E301000880
:1000D000E30100083D1C0008C51C0008E3010008FE
:1000E000E3010008E3010008E301000800F002F862
:1000F00000F05AF80AA090E8000C82448344AAF168
:100100000107DA4501D100F04FF8AFF2090EBAE865
:100110000F0013F0010F18BFFB1A43F0010318473B
:10012000F8440000184500000A444FF0000C10F895
:10013000013B13F0070408BF10F8014B1D1108BF65
:1001400010F8015B641E05D010F8016B641E01F805
:10015000016BF9D113F0080F1EBF10F8014BAD1C55
:100160000C1B09D16D1E58BF01F801CBFAD505E073
:1001700014F8016B01F8016B6D1EF9D59142D6D3CD
:10018000704700000023002400250026103A28BFF5
:1001900078C1FBD8520728BF30C148BF0B607047F9
:1001A0001FB51FBD10B510BD00F06EF81146FFF76A
:1001B000F7FF01F00DFF00F0A0F803B4FFF7F2FF26
:1001C00003BC01F0ACFE0000094880470948004725
:1001D000FEE7FEE7FEE7FEE7FEE7FEE7FEE7FEE7F7
:1001E000FEE7FEE704480549054A064B7047000054
:1001F0002D100008ED000008E0080020E00E0020AF
:10020000E00A0020E00A0020704700000FB4044913
:1002100010B503AA029800F009F810BC5DF814FBB1
:10022000000000207047704770477047074B70B55B
:100230000D467B4400F011F80446284600F020F8F3
:1002400010B14FF0FF3070BD204670BD7F1D000023
:1002500001694A1C02610878704700B58FB0CDE98A
:1002600001310021059105497944CDE9031011467A
:10027000684600F02EF80FB000BD0000E5FFFFFF5C
:10028000007B00F080007047754600F03DF8AE46F8
:1002900005006946534620F00700854618B020B592
:1002A000FFF7A0FFBDE820404FF000064FF0000729
:1002B0004FF000084FF0000B21F00701AC46ACE80E
:1002C000C009ACE8C009ACE8C009ACE8C0098D467B
:1002D00070472DE9F04106460024D6E90170F56823
:1002E0008046304603E04146B847641C3046A84784
:1002F0000028F8D12046BDE8F0810446AFF3008025
:100300002046FFF75AFF0000004870478008002091
:1003100008B50121042000F083FD1020ADF8000095
:100320008DF8030003208DF802006946034800F0B1
:1003300054F81021014800F0E6F808BD000801401B
:1003400000BFFEE770B502460C46FF25FF2309E01B
:1003500012F8010B80EA03010648405C80EA0503BD
:100360000548455C2000A4F10106B4B2F0D143EA8F
:10037000052070BD610000206101002070B51248A9
:10038000B0F9000002F094FB0446224600210F4819
:1003900000F0CCFC0E48B0F9000002F089FB0446E6
:1003A000224600210B4800F0C1FC0849486B02F0CE
:1003B00043FB04B20749486B02F03EFB05B22146FD
:1003C000284600F0C9F970BD440000204003002019
:1003D000480000207C03002070472DE9F0410246D0
:1003E00000250026002000230024002791F803C0E8
:1003F0000CF00F0591F803C00CF0100CBCF1000FCD
:1004000003D091F802C04CEA050591F800C0BCF198
:10041000000F31D0146800202BE04FF0010C0CFAD3
:1004200000F3B1F800C00CEA03069E4220D183001D
:100430004FF00F0C0CFA03F7BC4305FA03FC4CEA2F
:10044000040491F803C0BCF1280F06D14FF0010C51
:100450000CFA00FCC2F814C00AE091F803C0BCF129
:10046000480F05D14FF0010C0CFA00FCC2F810C087
:10047000401C0828D1D31460B1F800C0BCF1FF0FB4
:1004800034DD546800202EE000F1080C4FF0010824
:1004900008FA0CF3B1F800C00CEA03069E4221D121
:1004A00083004FF00F0C0CFA03F7BC4305FA03FC72
:1004B0004CEA040491F803C0BCF1280F05D100F107
:1004C000080C08FA0CF8C2F8148091F803C0BCF1CB
:1004D000480F07D100F1080C4FF0010808FA0CF89A
:1004E000C2F81080401C0828CED35460BDE8F081CB
:1004F0000246002093680B400BB1012000E0002071
:100500007047416170470161704700007CB5054646
:10051000002000900190002600242046641C0DF865
:10052000005003222046641C0DF8002000222046C3
:10053000641C0DF800200F222046641C0DF80020DA
:1005400000222046641C0DF8002002222046641C74
:100550000DF8002006216846FFF7F4FE0646F2B2C9
:100560002046641C0DF80020320A2046641C0DF859
:10057000002022466946024801F0B9FC7CBD00001B
:100580000044004000BFFEE708B50121082000F04C
:1005900047FC4FF47070ADF8000048208DF8030060
:1005A00069460248FFF719FF08BD0000000C014032
:1005B00010B5044614B101202D4908702C4800786C
:1005C000002839D040212B48FFF792FF80B18021CD
:1005D0002848FFF78DFF58B14FF480712548FFF789
:1005E00087FF28B14FF400712248FFF781FF18BB45
:1005F0000A2001F0B9FC00201D49087040211D4867
:10060000FFF776FF08B9012010BD80211948FFF7D8
:100610006FFF08B90220F7E74FF480711548FFF724
:1006200067FF08B90320EFE74FF400711148FFF7A7
:100630005FFFD8B90420E7E740210E48FFF758FFD5
:10064000012813D180210B48FFF752FF01280DD15B
:1006500001020848FFF74CFF012807D14102054875
:10066000FFF746FF012801D1014908700020CBE7C0
:1006700060000020000C014008B50121102000F0AE
:10068000CFFB4FF40050ADF8000010208DF80300B0
:1006900003208DF8020069460148FFF79EFE08BD61
:1006A0000010014000B589B00121052000F0B8FB21
:1006B0000121084600F0A4FB0320ADF8200018201B
:1006C0008DF8230003208DF8220008A92048FFF7A9
:1006D00084FE44F61F60ADF818004720ADF8140002
:1006E0000020ADF81600ADF81A008DF81C0005A921
:1006F0004FF0804000F070FE6020ADF80400002054
:10070000ADF80A00ADF80C000120ADF8060001A913
:10071000800700F0A7FD0821C80600F0EFFD60206B
:10072000ADF804000020ADF80A00ADF80C0001207F
:10073000ADF8060001A9800700F0EAFD0821C8060F
:1007400000F038FE0121880700F03DFD09B000BD32
:100750000008014000BFFEE72DE9F04104460D46C8
:10076000022C00DD0224022D00DD022514F1020F0F
:1007700001DA6FF0010415F1020F01DA6FF00105E3
:100780004FF0804000F02BFD001B07B24FF080407F
:1007900000F028FD284406B240F6C410874200DB72
:1007A000074640F69800874200DC074640F698006E
:1007B000864200DB0646B6F5E16F01DC4FF4E166E8
:1007C0004FF080418F860E87BDE8F08170470000B2
:1007D00070B5002100230F22C47804B3154C24689F
:1007E00004F4E064C4F5E064210AC1F10403CA40E2
:1007F000447804FA03F184781440214309010E4C33
:100800000678A155047804F01F050124AC40057852
:100810006D11AD0005F1E025C5F8004109E004784F
:1008200004F01F050124AC40044D0678761145F80C
:10083000264070BD0CED00E000E400E080E100E047
:1008400002490143024A1160704700000000FA05A6
:100850000CED00E008B54FF4A060FFF7F1FF1E209B
:100860008DF8000001208DF801008DF802008DF850
:1008700003006846FFF7ACFF25208DF8000002203A
:100880008DF8010000208DF8020001208DF8030092
:100890006846FFF79DFF26208DF8000002208DF8A6
:1008A000010001208DF802008DF803006846FFF773
:1008B0008FFF08BD30B500240CE0002506E00020C5
:1008C000074901EBC5010855681CC5B2802DF6DB50
:1008D000601CC4B2082CF0DB00F0D0F830BD000082
:1008E00080040020F0B5144600267F2801DC3F2953
:1008F00000DDF0BD0B46CF1701EB5777FF10C7F1B6
:100900000707FAB2CF1701EB5777FF10A1EBC70724
:10091000FDB2C5F107070123BB40DEB24CB10A4B63
:1009200003EBC0039B5C3343074F07EBC007BB548B
:1009300008E0054B03EBC0039B5CB343024F07EB9E
:10094000C007BB5400BFD4E78004002008B50121D4
:100950000C2000F065FA4FF47040ADF80000102054
:100960008DF8030003208DF8020069463F48FFF729
:1009700034FD4FF440513D48FFF7C3FD01203C4991
:1009800008603C49C1F8B40100203B49086064207C
:1009900001F0EAFA01203749C1F8B0010021AE2088
:1009A00000F092F90021D52000F08EF900215020AE
:1009B00000F08AF90021A82000F086F900213F20EC
:1009C00000F082F90021D32000F07EF900210846D2
:1009D00000F07AF90021402000F076F900218D2006
:1009E00000F072F90021142000F06EF9002120209F
:1009F00000F06AF90021022000F066F90021A12030
:100A000000F062F90021C02000F05EF90021DA2038
:100A100000F05AF90021122000F056F9002181203F
:100A200000F052F90021EF2000F04EF90021D9200A
:100A300000F04AF90021F12000F046F90021DB2006
:100A400000F042F90021302000F03EF90021A420FE
:100A500000F03AF90021A62000F036F90021AF207D
:100A600000F032F9FFF726FF08BD0000000C01403E
:100A70009401214200802142B081214230B50024FE
:100A80001CE004F1B001C8B2002100F01DF9002102
:100A9000084600F019F90021102000F015F9002592
:100AA00008E0084901EBC501085D012100F00CF9DF
:100AB000681CC5B2802DF4DB601CC4B2082CE0DBDE
:100AC00030BD0000800400202DE9F84F80460F461D
:100AD00016461C46BA462046E31704EB5373DB1058
:100AE00021464FEAE47C04EB5C7C4FEAEC0CA4EB7F
:100AF000CC0CBCF1000F02D04FF0010C01E04FF024
:100B0000000C6344224604EBD27C4FEA6C0C03FBDE
:100B10000CF303F0FF0BA6F12000C6B200254EE057
:100B20000C2C07D106EB4600274901EB8000405D05
:100B3000009013E0102C05D1244800EB0610405D16
:100B400000900BE0182C07D106EBC600204901EB02
:100B50008000405D009001E0BDE8F88F4FF0000993
:100B600027E0009800F0800028B1394640460A9AF4
:100B7000FFF7B8FE09E00A9808B9012000E000205C
:100B8000024639464046FFF7ADFE00984006000E8B
:100B90000090781CC7B2A7EB0A00A04205D15746C7
:100BA00008F1010000F0FF0806E009F1010000F083
:100BB000FF09B9F1080FD4DB00BF681CC5B25D4561
:100BC000AEDB00BFC8E70000562E0008CA3200089E
:100BD000BA3800082DE9FF4F81B0074691461E46FE
:100BE0000E9D4FF0000A002439E0301B401EC1B2B8
:100BF0000A2001F0F3F9B9FBF0F00A21B0FBF1F2A1
:100C000001FB1208BAF1000F16D1701EA04213DDCD
:100C1000B8F1000F0ED10120AB4605EBDB71491096
:100C200001FB04710090C8B22B4620220299FFF705
:100C30004BFF12E04FF0010A0120AB4605EBDB71E0
:100C4000491001FB04710090C8B208F13001CAB22A
:100C50002B460299FFF738FF00BF601CC4B2B442B4
:100C6000C3DB05B0BDE8F08FF8B506460F46154664
:100C70001C4621E004EBD4714910C1F18001B1425E
:100C800002DA00263819C7B2C4F14000B84204DACB
:100C9000002006460746FFF70DFE012000902A7847
:100CA000234639463046FFF70FFF204604EBD0714C
:100CB00006EB6101CEB26D1C28787E2802DC287814
:100CC0002028D7DAF8BD000010B5144B19600023B6
:100CD000134CC4F89431002216E000230F4C241D5D
:100CE000236000F080031BB10123241D236003E077
:100CF00000230A4C083423600123084C241D236080
:100D00004306180E531CDAB2082AE6DB0123054C11
:100D10002360054CC4F8B43110BD0000B4812142F9
:100D20000000214294012142008021422DE9F0413E
:100D300004460D4616463146284602F017F8E06094
:100D4000A169E06802F012F86061E168206801F0D2
:100D50000FFFA06294F8380001F0C2FE804661687F
:100D600001F006FF0746216901F002FFE0626169B8
:100D7000A06801F0FDFE2063D4E90A0101F0EEFD58
:100D80000746216B01F0EAFD6063D4E9031001F02E
:100D9000E5FD2061616A206901F0B6FF01D2606A59
:100DA0002061606A80F000473846216901F0ACFF9D
:100DB00003D2606A80F000402061E068A061BDE875
:100DC000F08170470A480B490860002048600A48D3
:100DD0008860012081F83800054808490860002033
:100DE000486005488860012081F83800704700009D
:100DF0000000C04040030020000090417C03002020
:100E000029B1064AD2690243044BDA6104E0034A7D
:100E1000D2698243014BDA61704700000010024042
:100E200029B1064A92690243044B9A6104E0034ADD
:100E300092698243014B9A617047000000100240A2
:100E400030B500210022002400232D4D6D6805F0EF
:100E50000C0121B1042905D0082923D105E0294D31
:100E6000056022E0274D05601FE0254D6D6805F403
:100E70007012234D6D6805F48034022505EB924213
:100E80001CB9214D554305600BE01D4D6D6805F4FF
:100E900000351DB11C4D5543056002E0194D554309
:100EA000056002E0174D056000BF00BF144D6D687E
:100EB00005F0F0010909154D6B5C0568DD404560E2
:100EC0000F4D6D6805F4E061090A104D6B5C4568D3
:100ED000DD4085600A4D6D6805F46051C90A0B4D0F
:100EE0006B5C4568DD40C560054D6D6805F44041AB
:100EF000890B074D6B5CC568B5FBF3F5056130BD2B
:100F00000010024000127A0000093D00610200203A
:100F100071020020704710B500F002F810BD00000B
:100F20000CB50020019000903348006840F48030F8
:100F30003149086000BF3048006800F4003000907C
:100F40000198401C0190009818B90198B0F5A06F65
:100F5000F1D12948006800F4003010B10120009060
:100F600001E0002000900098012843D12348006848
:100F700040F01000214908600846006820F0030096
:100F800008600846006840F0020008601A4840689F
:100F9000194948600846406848600846406840F47F
:100FA000806048600846406820F47C10486008462D
:100FB000406840F4E81048600846006840F08070DF
:100FC000086000BF0C48006800F000700028F9D0ED
:100FD0000948406820F00300074948600846406817
:100FE00040F00200486000BF0348406800F00C0079
:100FF0000828F9D10CBD000000100240002002407A
:10100000042808D14FF0E021096941F004014FF0B4
:10101000E022116107E04FF0E021096921F00401AD
:101020004FF0E022116170477047000010B513487F
:10103000006840F001001149086008464068104906
:1010400008400E494860084600680E4908400B49B0
:1010500008600846006820F4802008600846406860
:1010600020F4FE0048604FF41F008860FFF753FF34
:101070004FF000600449086010BD000000100240FD
:101080000000FFF8FFFFF6FE08ED00E010B5FFF7E7
:10109000E1FB00F047FF00F0C3F8FFF757FCFFF754
:1010A00073FAFFF7E9FAFFF733F94FF4E13000F094
:1010B000A1FF4FF4164000F0DFFFFFF783FEFFF7BC
:1010C000F1FA064801884FF0804000F080F90448AA
:1010D00001884FF0804000F07CF910BD38000020FE
:1010E0003A00002010B501212A4800F07EF80028BF
:1010F0004AD029480088401C274908802748008892
:10110000401C2649088026480088401C2449088045
:1011100024480088401C2349088023480088401C3C
:10112000214908801C480088052805DB00201A4951
:10113000088001201D490870194800880A2805DB2D
:1011400000201749088001201949087013480088B9
:10115000142805DB0020114908800120154908707A
:1011600010480088642805DB00200E490880012013
:10117000114908700C480088C82805DB00200A497E
:10118000088001200D4908700121024800F018F87C
:1011900010BD0000000800401000002014000020D6
:1011A0001200002016000020180000200E00002071
:1011B0000C0000200A0000200B0000200D00002081
:1011C000CA430282704721B1028842F001020280C4
:1011D00004E002884FF6FE731A4002807047014611
:1011E000888E70470146088F704730B50246002050
:1011F00000230024158A05EA0103958905EA010404
:1012000013B10CB1012000E0002030BD1AB1838978
:101210000B43838102E083898B4383817047000005
:101220000EB501210420FFF7EBFD40F2CF20ADF811
:1012300004006320ADF800000020ADF80600ADF812
:1012400002006946064800F0C7F80122114604482A
:10125000FFF7DCFF01210248FFF7B5FF0EBD0000DC
:101260000008004070B5002400220023058C4FF6D2
:10127000FE7635400584028C8388048B4FF68F758B
:101280002C40B51E2C400D882C43751E2A400D891C
:101290002A434D882A43144DA8420BD0134DA8422F
:1012A00008D0134DA84205D0124DA84202D0124DCD
:1012B000A84213D14FF6F7752A404D892A434FF6BD
:1012C000FB752A408D882A434FF6FF652B404FF669
:1012D000FF552B408D892B43CD892B43838004837D
:1012E000CD888586028470BD002C01400034014009
:1012F0000040014000440140004801400A460021EE
:10130000018B4FF6F77319401143018370470000BA
:1013100070B5002400220023058C4FF6EF7635408F
:101320000584028C8388048B48F6FF752C404FF6A9
:10133000FF452C400D884FF6FF7606EA05252C4325
:101340004FF6DF752A400D8906EA05152A434D88B8
:1013500006EA05152A43154DA84202D0144DA842AD
:101360001DD14FF67F752A404D894FF6FF7606EA6C
:1013700005152A434FF6BF752A408D8806EA0515E4
:101380002A434FF6FF352B404FF2FF752B408D89D6
:1013900006EA85052B43CD8906EA85052B43838024
:1013A0000483CD880587028470BD0000002C0140B5
:1013B000003401400A460021018B4FF2FF731940AF
:1013C0004FF6FF7303EA02231943018370478186B6
:1013D0007047018770470000002202881D4B984229
:1013E0000ED01D4B98420BD0B0F1804F08D01B4B54
:1013F000984205D01A4B984202D01A4B984204D119
:101400004FF68F731A404B881A43174B984207D0F8
:10141000164B984204D04FF6FF431A40CB881A432C
:1014200002808B8883850B8803850A4B98420BD0FA
:10143000094B984208D00E4B984205D00D4B98426C
:1014400002D00D4B984201D10B7A0386012383828F
:1014500070470000002C01400034014000040040AF
:1014600000080040000C0040001000400014004044
:101470000040014000440140004801402DE9FC5F6C
:10148000FE48007800287DD00020FC490870102319
:10149000FBA200210846FFF7E7FB0020FFF788F8D2
:1014A000F94908700846007800286AD00846007894
:1014B00001281AD10020F54908700120F44908607C
:1014C0000020F4490870F4490860F4490860F448C1
:1014D00000884FF080418886F248008808871023F2
:1014E000F1A230213820FFF7BFFBE748007802283F
:1014F00015D1EB4800884FF080418886E948008884
:1015000008870320E14908700020E2490870E74994
:1015100008701023E4A230213820FFF7A5FBDA4839
:101520000078032824D1DE4800884FF08041888667
:10153000DC48008808870220D44908700020DB4975
:101540000870D4480078012809D11023D6A2302190
:101550003820FFF789FB0020CE49087008E01023EF
:10156000D3A230213820FFF77FFB0120C949087042
:10157000102003230090C448027800210846FFF79A
:1015800029FB00E001E0FFF779FAC0480078012864
:101590007AD10020BD4908701023C6A20021232063
:1015A000FFF762FBC548006801F082FA0190C44869
:1015B000008800F0D7FF8046C24AC34B00F0E6FF28
:1015C00006460022C14B00F075FE0446C04AC14BDE
:1015D00001F0DAF8824600F093FD0090019901F0E5
:1015E000C7FABD490860BD49BB48006801F0C0FAB0
:1015F000B9490860BA48007A532813D11023B9A218
:1016000019461846FFF730FBB348006801F030FA7E
:101610000446102004232246014600904820FFF78C
:10162000D9FA2EE0AE48007A432813D11023AFA296
:1016300019461846FFF718FBA748006801F018FA8A
:101640000446102004232246014600904820FFF75C
:10165000C1FA16E0A248007A542812D11023A5A29C
:1016600019461846FFF700FB9B48006801F000FA96
:101670000446102004232246014600904820FFF72C
:10168000A9FA0A20814908709C480078012837D1BE
:101690007E480078022833D10020984908704FF026
:1016A0008040008F964991F9001008444FF0804126
:1016B00008870846008F40F69801884209DB0846F3
:1016C0004FF0804108878E480078404240B28C49F4
:1016D00008704FF08040008FB0F5E16F09DC4FF4E7
:1016E000E160C106088786480078404240B28449DC
:1016F00008707B48407A592802D10320634908705A
:1017000080480078B0B100207E4908705F480078BA
:10171000032801D1FEF732FE5E48007818B97AA09E
:10172000FEF774FD06E05B480078012802D177A03F
:10173000FEF76CFD7648007800286BD000207449D5
:1017400008700120FEF7E2FE72480068C04372494B
:10175000C1F8B4015048006810F1020F1DDB4E487B
:101760000068022819DC4D48006810F1020F14DBF4
:101770004A480068022810DC44480078012803D059
:1017800042480078032808D15548407A592804D1A6
:1017900062480078401C614908706048007880B158
:1017A0003A480078012803D038480078032808D147
:1017B0004B48407A592804D159480078401C584970
:1017C0000870564800780A2824D138480078D8B9DB
:1017D0002E480078012803D02C480078032819D11E
:1017E0003F48407A592815D14C4800784C4909782F
:1017F00088420AD1002049490870494908700120EF
:101800002A4908702149087004E000204349087003
:10181000434908704348007858B300204149087094
:1018200022480078012824D118480078012807D0E0
:1018300016480078032803D0144800780A2818D1E5
:101840002748407A592814D10020114908603648A9
:101850000088401C3449088008460088B0F5C87FDD
:1018600007D10020088001200949086000200F49A5
:1018700008702E48008800F4004059E00A0000205B
:101880005445535400000000300000203300002075
:101890009001214234000020440000204800002034
:1018A000380000203A0000203000000037000020FF
:1018B000310000004469733A000000004C00002031
:1018C0003C00002054E3A59BC420A03F00005940E9
:1018D0007DD0B359F5B99A3F580000200000C842A6
:1018E00078020020537175204C3A00004379632040
:1018F000523A0000547269204C3A00000C0000205B
:101900005C0000200B000020300D0A00310D0A00A1
:101910000D000020B40122420000224235000020C8
:10192000360000200E0000204000002004000020AF
:1019300000287AD00020AD490880AD48807A303840
:1019400064214843AA49C97A303901EB810100EB8F
:101950004101A748007B30380844A6490860A448E4
:10196000007878284BD1A2480079792847D1A0483F
:1019700040782D2812D09E48407830386421484362
:101980009B498978303901EB810100EB410198488E
:10199000C07830380844984908600CE09448C07812
:1019A000303893498978C1F1300101EB8101C0EBF6
:1019B0004100914908608E4840792D2812D08C480A
:1019C000407930386421484389498979303901EBBD
:1019D000810100EB41018648C079303808448749CD
:1019E00008600CE08248C079303881498979C1F1BA
:1019F000300101EB8101C0EB4100804908607E4865
:101A00000068002812DB012010232B2220210090E7
:101A10000020FFF759F8102003230090764820217A
:101A200002680820FFF7D6F812E061E001201023D9
:101A30002D22202100900020FFF746F810200323DC
:101A400000906D480068424220210820FFF7C2F84C
:101A50006A480068002811DB012010232B22302166
:101A600000900020FFF730F8102003230090634817
:101A7000302102680820FFF7ADF811E001201023A3
:101A80002D22302100900020FFF71EF810200323A4
:101A900000905A480068424230210820FFF79AF827
:101AA0005348407B4E2805D1102355A220212820E1
:101AB000FFF7DAF84E48407B422805D1102352A2A6
:101AC00020212820FFF7D0F84948407B532805D132
:101AD00010234FA220212820FFF7C6F84448407B5E
:101AE000562805D110234CA220212820FFF7BCF84E
:101AF0004B48008800F40040F0B3002048490880BB
:101B0000C8204849086008460088801E81B24648BF
:101B1000FEF718FC454908800846007844490870DB
:101B200042480088000A434908703E480068801E09
:101B30003D49085C3E490978884221D1394800680E
:101B4000401E3949085C3B490978884218D136481B
:101B5000C078002101EA006033490979002202EAD5
:101B600001410843304949794FF47F4202EA01219B
:101B700008432D49897900E00BE008432E4908808D
:101B80001020042300902C48028800214620FFF7F3
:101B900021F84FF08040008F40F69801884203DB27
:101BA00008464FF0804108874FF08040008FB0F525
:101BB000E16F03DC4FF4E160C10608874FF080401D
:101BC000808EB0F51B6F04DB4FF41B604FF080413B
:101BD00088864FF08040808E40F69801884203DC72
:101BE00008464FF080418886BDE8FC9F0400002035
:101BF000780200204C000020440000204800002013
:101C00004E6F726D616C00004261736B6574000011
:101C1000536F636365720000566F6C6C65790000EA
:101C20005E00002050000020B80300203E0000208D
:101C300031000020320000203C00002010B540F2AE
:101C400025511D4800F08DF810B31B4800F044F9F1
:101C5000C4B21A48008800F40040C8B91748008888
:101C600000F4804060B10A2C03D0002013490880A2
:101C700020E01248008840F400401049088019E034
:101C80000D2C06D10D48008840F480400B49088097
:101C900010E00A480088C0F30D0009490C540748B9
:101CA0000088401C0549088008460088C72801DDD7
:101CB0000020088010BD0000003801400400002012
:101CC0007802002010B540F22551164800F049F87E
:101CD00030B3144800F000F9C4B21348008800F48F
:101CE0000040E8B910480088C0F30C00092806D16C
:101CF0000D48008840F400400B49088010E00A4875
:101D00000088C0F30D0009490C5407480088401CA6
:101D10000549088008460088C72801DD00200880A2
:101D200010BD0000004400405E000020B803002009
:101D300021B1828942F40052828104E082894DF609
:101D4000FF731A408281704702460020B1F5007F80
:101D500000D100BF13880B400BB1012000E0002030
:101D6000704770B50246002400230025002040F68D
:101D70006A16B14200D100BFC1F3421501F01F0342
:101D8000012606FA03F3012D02D19689334006E0BD
:101D9000022D02D1168A334001E0968A33400C129C
:101DA000012606FA04F41688344013B10CB1012060
:101DB00000E0002070BDF0B5034600240026002599
:101DC000002040F66A17B94200D100BF1846C1F39F
:101DD000421401F01F06012707FA06F5012C01D174
:101DE0000C3004E0022C01D1103000E014301AB1A4
:101DF00007682F43076002E00768AF430760F0BD44
:101E00002DE9F04786B005460E460024A24600BFE5
:101E1000A1460027B08900B100BF2F462C8A4CF69E
:101E2000FF700440F08804432C82AC894EF6F31016
:101E30000440B08831890843718908430443AC8168
:101E4000AC8A4FF6FF400440B0890443AC8201A83D
:101E5000FEF7F6FF1F48874202D1DDF810A001E02F
:101E6000DDF80CA0A88900F4004040B10AEBCA00DC
:101E700000EB0A1031684900B0FBF1F807E00AEB0B
:101E8000CA0000EB0A1031688900B0FBF1F8642049
:101E9000B8FBF0F004012009642101FB1089A88936
:101EA00000F4004040B1322000EBC900B0FBF1F07B
:101EB00000F00700044308E0322000EB0910642121
:101EC000B0FBF1F000F00F0004432C8106B0BDE838
:101ED000F08700000038014001468888C0F3080000
:101EE0007047C1F308028280704700BFFEE72DE90A
:101EF000F04107460D461646002400BF0BE0295D61
:101F00003846FFF7EEFF00BF80213846FFF71CFF81
:101F10000028F9D0641CB442F1DBBDE8F081014631
:101F200000BF704710B56FF00400FFF769F80A486A
:101F300000680A49B0FBF1F00949087008460078CA
:101F400000EB4001C1EBC0104FF6FF7101EAC00089
:101F50000449088010BD00001C00002000127A0017
:101F600006000020080000200146114A12884A435A
:101F70004FF0E0235A6100229A611A46126942F03A
:101F800001021A6100BF4FF0E022106900F0010267
:101F90001AB100F48032002AF5D04FF0E022126925
:101FA00022F001024FF0E0231A6100229A6170478B
:101FB0000800002000BF054A128802F04002002AF3
:101FC000F9D0C2B2014B1B1D1A8070470038014086
:101FD000FFF75CF801E0FFF751FAFCE710B50246A5
:101FE000012000E050430B00A1F10104E1B2F9D15E
:101FF00010BD000010B586B00446012144F2040073
:10200000FEF70EFF4FF40070ADF8140003208DF8BA
:10201000160018208DF8170005A91548FEF7DDF900
:102020004FF48060ADF8140004208DF8170005A966
:102030000F48FEF7D2F901940020ADF80800ADF882
:102040000A00ADF80C00ADF810000C20ADF80E0041
:1020500001A90848FFF7D4FE012240F225510548A6
:10206000FFF7A9FE01210348FFF762FE06B010BD8D
:10207000000801400038014010B586B00446012137
:102080004804FEF7BDFE01210420FEF7C9FE04202E
:10209000ADF8140003208DF8160018208DF81700F5
:1020A00005A91548FEF799F90820ADF81400042099
:1020B0008DF8170005A91048FEF78FF9019400204C
:1020C000ADF80800ADF80A00ADF80C00ADF810004E
:1020D0000C20ADF80E0001A90848FFF791FE01227F
:1020E00040F225510548FFF766FE01210348FFF73E
:1020F0001FFE06B010BD0000000801400044004073
:1021000021F00042A2F16052B2F5801F01F00043BD
:1021100028BFD2F17F6C0BD95FEA001C43EAC202F0
:1021200042EB507018BF704728BF20F00100704785
:10213000B2F5801FBCBF184670474FEA410C1CF532
:10214000001F02D2084600F0DABD70B500F0C8FAF0
:1021500000000089FFF7F6BF4FF00040A0F58000B7
:102160007047000010B591EA030F48BF83F00043A9
:1021700000F11283841A71EB030C05D2121943EBA0
:102180000C03001B61EB0C01DFF824E14FEA115452
:10219000A4EB135C1EEA430F18BF9EEA445F73D0A2
:1021A00023EA0E03DCF1200E21EA045143F48013EC
:1021B00032D322FA0CFE10EB0E0023FA0CFE41EB98
:1021C0000E01CCF1200E03FA0EFE10EB0E0051F1C1
:1021D0000001B1F5801FCCF1200E32D201EB045189
:1021E00012FA0EF2BDE8104058BF7047401C38BFCD
:1021F0005FEA420218BF7047002814BF20F00100B8
:1022000041F100014FEA410313F5001F38BF704749
:10221000A1F1C04100F0B2BA012A43EB0302ACF1D4
:10222000200CDCF11F0E32BF4FF0000E23FA0CF32E
:1022300010EB030041EB0451B4EB115FD0D0A1EBE4
:10224000045101F5801149085FEA300001EB0451A7
:102250000ED350F1000038BF12FA0EFE08D1BDE8CF
:102260001040C9E7401C38BF5FEA4202CAD1C3E749
:10227000BDE810404FEA410313F5001F38BF704717
:10228000A1F1C04100F07ABA9EEA445F08D011EA99
:102290005E0FBDE8104004BF01F000410020704710
:1022A000BDE8104070B500F01BFA00BF64FBBE3EF5
:1022B0000000E0FF2DE9C04130B4DFF8A0C23CEAE5
:1022C000111418BF3CEA131400F0EC8081EA0305F6
:1022D0001CEA111444EAD57418BF1CEA131500F067
:1022E000C780A4EB05044FF0004545EAC12145EA4B
:1022F000C32341EA505143EA525304F17F74994297
:1023000004F500344FEAC0204FEAC22208BF9042D1
:1023100000F09C804FEA13650FF24016765D4FEA9D
:10232000134506FB05F7C7F1807706FB07F74FEA71
:10233000D737A7FB03687642C8F58038A7FB06CEDF
:1023400038BFA8F1010807FB08E64FF0000EA6FB16
:10235000028CE6FB03CEDCF1000CCEF1004E38BF60
:10236000AEF1010EA6FB0C584FF000074FF0000530
:10237000E6FB0E87A1FB08C6A0FB07CE16EB0E06F8
:1023800045F10005E1FB076515F1E04E7EBFA4F5C0
:1023900080345FEA46066D4116F1800745F100057D
:1023A0004FEA17274FEA066647EA0567A6F1DE46B9
:1023B000B6F1805F4FEA15251FD9384624F0010C8D
:1023C00005EBC471BCF1FE6F01EB0C1102D8F0BC3F
:1023D000BDE8008124425CBF01F5801E9EEAC47FF7
:1023E00002D4F0BCBDE80081244238D4F0BCA1F195
:1023F000C041BDE8004100F0C1B94FEAD22242EA33
:1024000043524FEAD323A7FB02864FEAD02040EA8B
:10241000415007FB03661EEA0E0F4FEAD12105FB70
:10242000026658BFA6EB0056B6EB00564FEA520EB6
:102430004EEAC37E18EB0E0E56EB530EBDD518EBCD
:1024400002085E417F1C55F10005B6E74FF4801588
:102450004FF000074FF000064FF00008ADE7F0BC6A
:102460004FF0000001F1C04101F00041BDE80081E2
:1024700011EA0C1F0CEA131500D00CE013EA0C1F34
:1024800000F025804FF00000F0BC81EA030101F06C
:102490000041BDE80081F0BCBDE8004181EA0301D4
:1024A00000F06CB9F0BCBDE8004170B500F018F95F
:1024B000097EFC3E00F007B881EA03014FF00000FE
:1024C00001F00041704781EA030100F057B9F0BC08
:1024D000BDE800414FF0000021497047FFFDFBF9C6
:1024E000F7F5F4F2F0EEEDEBE9E8E6E4E3E1E0DE47
:1024F000DDDBDAD8D7D5D4D3D1D0CFCDCCCBCAC8B9
:10250000C7C6C5C4C2C1C0BFBEBDBCBBBAB9B8B7DF
:10251000B6B5B4B3B2B1B0AFAEADACABAAA9A8A8D2
:10252000A7A6A5A4A3A3A2A1A09F9F9E9D9C9C9BA0
:102530009A9999989797969595949393929191904B
:102540008F8F8E8E8D8C8C8B8B8A898988888787DC
:102550008685858484838382828181800000FF0751
:102560000000F87FB0FA80F310FA03F10AD0C3F14B
:102570001D0303F580634FEA41504FEA035202EB1B
:10258000D12170474FF0000070470000DFF848C1CC
:1025900070B51CEA111E1EBF1CEA13159EEA0C0F33
:1025A00095EA0C0F00F06F8081EA030423EA4C13D4
:1025B0004EEAD47E21EA4C1141F4801143F4801399
:1025C000AE44A1FB024CA0FB0365AEF17F7E361941
:1025D00055EB0C05A1FB034C4CF10003A0FB021CC6
:1025E00016EB0C06654153F10003094218BF46F093
:1025F000010613F4007F0BD14FEA03314FEA053097
:10260000340341EA155140EA16506FF003020AE024
:102610004FEAC3214FEAC520F40241EA555140EA8E
:1026200056506FF0020202EB2E4201EB025585EA92
:10263000CE710AD05FEA440C18BF24F0004450F178
:10264000000041F1000120EAD47040F2FE7C6245B6
:1026500000D270BDA84214BF4FF080444FF04044F8
:10266000002E08BF0024BEF1806FA8BFA1F1C041B9
:10267000BDE8704080F282804FF0000001F1C0415F
:1026800001F0004170479EEA0C0F0CEA131518BFC9
:1026900095EA0C0F06D04FF0000081EA030E0EF011
:1026A000004170BD00F01CF88900013E00F007B841
:1026B00000F009B84FEA430C5FEA5C5C08D081EA9D
:1026C000030100F05BB84FEA410C5FEA5C5CF6D1B5
:1026D0004FF00000014970470000FF070000F87F3D
:1026E0000EF1020E2EF0030E5EF8046B364205D496
:1026F000012A43EB030515F5001F12D8012841EB11
:10270000010C1CF5001F0CD80ED14FEAD17C15F539
:10271000001F0CEB4C0C0CF1020C08BF4CEBD37CF3
:1027200004E04FF0080C01E04FEAD37C0CEB4C05C1
:1027300026FA05F606F00706B6F1040C06D20EEBF3
:10274000860CBDE870404CF0010C6047DFE80CF0EF
:10275000090B02024FF000414FF00000A1F50021EB
:1027600070BD19461046012851EB010418BFD4F57D
:10277000001484BF002001F0004170BD0808A0F5DE
:1027800000114FEA3101704710B591EA030F48BFBD
:1027900083F000433FF5EEAC841A71EB030C07D2D3
:1027A00012198CF0004C43EB0C03001B61EB0C0185
:1027B000DFF8A4E14FEA1154A4EB135C1EEA430FC7
:1027C00018BF9EEA445F00F0B08023EA6E035242D5
:1027D00021EA0451C3EB6E0338BF5B1EDCF1200E0F
:1027E00025D322FA0CFE10EB0E0043FA0CFE41EB4F
:1027F0000E01CCF1200E03FA0EFE10EB0E0051F18B
:102800000001CCF1200E29D412FA0EF201EB045192
:10281000BDE8104058BF7047401C1CBFB2F1004FCC
:10282000704700280CBF491C20F00100704712EBD4
:10283000020E43EB030218BF4FF0010E4EEA4202B4
:10284000ACF1200CDCF11E0E54D943FA0CFE10EB57
:102850000E0051F1FF31CCF11E0ED5D50EF1010E57
:1028600012FA0EFE404141EB010101EB445C5FEACC
:102870005C5C10D910EBDE7001EB045138BFBEF187
:10288000004FBDE8104018BF704700280CBF491C1E
:1028900020F00100704730D24FEAD42C11F500111E
:1028A00024F400641BD0B1FA81F20B3AA41AA41EDE
:1028B000D2F12003914030FA03F31943904001EB29
:1028C000CC71002C01EB0451BDE81040A8BF70474B
:1028D00001F1C0414FF0000001F000417047B0FA33
:1028E00080F310FA03F100D110BDE41A173C48053B
:1028F000C90AE4E701EB045110BD491001EB045192
:10290000BDE810404FEA300002E04FF00001704790
:102910004A0008BF0042F8D0B2F5001F28BF704738
:1029200001F000414FF0000070479EEA445F07D07D
:1029300011EA5E0FBDE8104004BF0021002070477F
:10294000BDE8104070B5FFF7CBFE00BF40DFF63E9C
:1029500083F00041104670470000E0FF90EA010F4D
:1029600048BF81F0004100F10882421A3CBF801A42
:1029700089184FEAD0524FF07F4C1CEA410FA2EB6E
:10298000D15318BF9CEA026F00F03B804FF0004C1F
:102990004CEA00204CEA012121FA03FC10EB0C0C5C
:1029A0001ED202F1FF325FEA1C2040EBC25038BF5A
:1029B00070471CF07F0F4FEA400C18BFBCF17F4FEF
:1029C00038BF7047C3F12003994008BF20F00100D1
:1029D000BCF17F4F38BF7047A0F1C04000F08FB905
:1029E0004FEA3C00000A40EBC25028BF1CF0FF0F2A
:1029F0004FEA400CE6D018BFBCF17F4F38BF70479C
:102A0000EAE79CEA026F05D010EA5C0F08BF00F00D
:102A10000040704710B500F02CF900BF64FBBE3ECB
:102A2000401058BFC0F14040491058BFC1F140416B
:102A30008142EFF30080704741000B0ED3F19E02FC
:102A400008D950F400034FEA032323FA02F048BFE9
:102A50004042704710B500F00CF900BF4992248045
:102A6000002070476FF0004282EA200070470000AB
:102A7000C10DD1F19E0206DB4FEA002343F0004373
:102A800023FA02F07047004207D54FEA4001B1F146
:102A9000FE4F02D24FF00000704710B500F0E9F889
:102AA00049922480002070476FEA200070470000A0
:102AB00010F0004148BF4042B0FA80F310FA03F230
:102AC000C3F19D030BD051EAC35101EB1220530611
:102AD00038BF704700F1010008BF20F001007047C7
:102AE000B0FA80F310FA03F2C3F19D030AD0D905BE
:102AF00001EB1220530638BF704700F1010008BFF8
:102B000020F001007047000050EA010C00F1138032
:102B10001CF5000F58BFBCF5000F01D48842704768
:102B200007D710F5000F58BF11F5000F15D48842D4
:102B30007047894270471CF5000F04D5BCF5000FA3
:102B4000F7D5814270474FF0807C1CEB400F38BFB7
:102B50001CEB410F01D28142704710B500F089F89B
:102B6000922449004FF000504FF08051FFF758BFBA
:102B70004FF47F0C1CEAD0121EBF1CEAD11392EA5C
:102B80000C0F93EA0C0F00F0478090EA010F48BF4A
:102B900042F480724FF0004C4CEA00204CEA0121D4
:102BA00002EB0302A0FB0113A2F50002002918BFEB
:102BB00043F001035B0028BF4FEA330342EB22429C
:102BC0005FEA132C4CEBC2502EBFBCEB436FB2F547
:102BD0007C0F70474FEA036CBCF1004F08BF20F038
:102BE0000100B2F57C0F38BF70470BD582F0FF02B1
:102BF00012F5803FC8BF704700F1C040D8BF00F059
:102C00000040704700F5000C5FEA4C0C48BF70476D
:102C1000B0F1C04000F073B890EA010F0CEAD11394
:102C200048BF42F48072624538BF634504D280EAEF
:102C3000010000F00040704710B500F01AF800BF26
:102C40008900013E00F007B800F009B85FEA410CC6
:102C50005FEA1C6C08D080EA010000F050B85FEA1F
:102C6000400C5FEA1C6CF6D14FF00040A0F58000EC
:102C700070470EF1020E2EF0030E5EF8044B244254
:102C800004D44FEA4102B2F17F4F11D84FEA40031A
:102C9000B3F17F4F0CD80ED14FEAD07CB2F17F4F09
:102CA0000CEB4C0C0CF1020C08BF4CEBD17C04E09B
:102CB0004FF0080C01E04FEAD17C0CEB4C0324FAF6
:102CC00003F404F00704B4F1040C06D20EEB840CF8
:102CD000BDE810404CF0010C6047DFE80CF007083D
:102CE00002024FF00040A0F5800010BD08464200EF
:102CF00018BFD2F1807288BF00F0004010BDFF21E4
:102D000041EAD050C005704751EA000C00F1138031
:102D10001CF5000F58BFBCF5000F01D4814270476D
:102D200007D711F5000F58BF10F5000F15D48142D9
:102D30007047894270471CF5000F04D5BCF5000FA1
:102D4000F7D5884270474FF0807C1CEB410F38BFAD
:102D50001CEB400F01D28842704780EA010081EAF3
:102D6000000180EA0100FFF7F8BE000090EA010FC1
:102D700048BF81F000413FF5F8AD421A04D882F017
:102D80000042A0EB020011444FEAD0524FF07F4CBA
:102D90001CEA410FA2EBD15318BF9CEA026F4AD044
:102DA0004FF0004C4CEA00204CEA012121FA03FCD0
:102DB000B0EB0C0C0FD412F0FE0F36D05FEA4C00D3
:102DC0001DD5001240EBC25038BF70471CF03F0FBA
:102DD00018BF70470BE0A2F101025FEA1C2040EB34
:102DE000C25038BF70471CF07F0F18BF7047C3F147
:102DF0002003994014BF401E20F001007047800856
:102E00004FEA122308BF7047B0FA80FCA2EB0C0215
:102E1000CCF1280C60FA0CF093EA122F04BF00EBFF
:102E2000C25070474FEAC3707047130A5FEADC1064
:102E300008BF7047F6E79CEA026F04D010EA5C0F07
:102E400008BF0020704710B5FFF713FF40DFF63EC4
:102E500081F000407047000000000000000000000A
:102E60000000000000003F400000000000000000E3
:102E70003000400030004000000009000BC03D0061
:102E80000BC03D00090018C024407FE02240318083
:102E90000000180024C01B000D8032400180038018
:102EA0001C4027401C8007400040100060000000CC
:102EB0000000000000000000000000001F80204013
:102EC00040200000402020401F800000000009003A
:102ED00006001F80060009000000040004003F8077
:102EE000040004000000001000600000000000006A
:102EF00000000400040004000400040000000000BE
:102F000000400000000000000000002001C006009A
:102F10003800400000001F802040204020401F80DB
:102F20000000000010403FC000400000000018C03A
:102F300021402240244018400000108020402440BE
:102F400024401B80000002000D0011003FC0014022
:102F500000003C80244024402440238000001F8047
:102F6000244024403440038000003000200027C06B
:102F70003800200000001B802440244024401B8097
:102F800000001C0022C0224022401F8000000000E0
:102F90000000084000000000000000000000046085
:102FA000000000000000000004000A001100208062
:102FB0004040090009000900090009000000000064
:102FC0004040208011000A00040018002000234027
:102FD0002400180000001F802040274029401F4087
:102FE0000000004007C039000F0001C00040204031
:102FF0003FC0244024401B8000001F802040204010
:1030000020403080000020403FC0204020401F80F2
:10301000000020403FC024402E4030C0000020402F
:103020003FC024402E00300000000F0010802040E0
:1030300022403380020020403FC0040004003FC013
:103040002040204020403FC0204020400000006041
:10305000202020203FC02000200020403FC02440EE
:103060000B0030C0204020403FC0204000400040C6
:1030700000C03FC03C0003C03C003FC000002040F7
:103080003FC00C4023003FC020001F802040204054
:1030900020401F80000020403FC024402400180032
:1030A00000001F802140214020E01FA000002040A0
:1030B0003FC02440260019C0004018C024402440CE
:1030C000224031800000300020403FC020403000CE
:1030D000000020003F80004000403F802000200092
:1030E0003E0001C0070038002000380007C03C0047
:1030F00007C038000000204039C0060039C0204019
:1031000000002000384007C0384020000000304058
:1031100021C02640384020C00000000000007FE0B1
:10312000402040200000000070000C0003800040A0
:1031300000000000402040207FE000000000000070
:1031400020004000200000000000001000100010CF
:1031500000100010001000000000400000000000FF
:103160000000000002800540054003C00040200030
:103170003FC004400440038000000000038004407E
:1031800004400640000000000380044024403FC08B
:10319000004000000380054005400340000000009F
:1031A00004401FC0244024402000000002E00550DD
:1031B00005500650042020403FC00440040003C0D6
:1031C00000400000044027C0004000000000001044
:1031D0000010041027E00000000020403FC0014024
:1031E000070004C00440204020403FC00040004091
:1031F000000007C0040007C0040003C00000044032
:1032000007C00440040003C00040000003800440E5
:10321000044003800000041007F0045004400380C1
:103220000000000003800440045007F00010044038
:1032300007C00240040004000000000006400540F2
:10324000054004C00000000004001F80044000404E
:103250000000040007800040044007C00040040054
:10326000070004C0018006000400060001C007003A
:1032700001C006000000044006C0010006C0044072
:1032800000000410071004E00180060004000000A4
:10329000044005C006400440000000000000040097
:1032A0007BE040200000000000000000FFF0000074
:1032B0000000000040207BE004000000000040000F
:1032C00080004000200020004000000000000000BE
:1032D00000000000000000000000000000000000EE
:1032E0001FCC000C000000000000000008003000AF
:1032F00060000800300060000000022003FC1E2077
:10330000022003FC1E200220000000000E18110401
:103310003FFF10840C78000000000F0010840F386D
:1033200000C0077818840078000000780F8410C46B
:1033300011240E9800E40084000808006800700062
:10334000000000000000000000000000000000007D
:1033500007E018182004400200000000400220048A
:10336000181807E000000000000002400240018041
:103370000FF00180024002400000008000800080C9
:103380000FF800800080008000000001000D000E9A
:10339000000000000000000000000000008000802D
:1033A000008000800080008000800000000C000C85
:1033B00000000000000000000000000000060018EF
:1033C00000600180060018002000000007F00808D7
:1033D00010041004080807F00000000008040804A6
:1033E0001FFC000400040000000000000E0C10147C
:1033F0001024104411840E0C000000000C1810045E
:103400001104110412880C700000000000E0032079
:10341000042408241FFC0024000000001F981084CE
:1034200011041104108810700000000007F00888D3
:103430001104110418880070000000001C00100026
:1034400010FC13001C001000000000000E38114496
:103450001084108411440E38000000000700088C0E
:1034600010441044088807F000000000000000002D
:10347000030C030C0000000000000000000000012D
:103480000106000000000000000000000080014074
:10349000022004100808100400000220022002206C
:1034A0000220022002200220000000001004080870
:1034B0000410022001400080000000000E001200F5
:1034C000100C106C10800F00000003E00C1813E4C7
:1034D000142417C4082807D000000004003C03C4CB
:1034E0001C40074000E4001C000410041FFC1104F1
:1034F000110411040E880070000003E00C18100481
:103500001004100410081C10000010041FFC10040C
:1035100010041004080807F0000010041FFC110438
:10352000110417C410040818000010041FFC110433
:10353000110017C010000800000003E00C18100470
:10354000100410441C780040000010041FFC10847C
:103550000080008010841FFC100400001004100480
:103560001FFC100410040000000000030001100103
:1035700010011FFE10001000000010041FFC1104B9
:1035800003801464181C1004000010041FFC1004B5
:10359000000400040004000C000010041FFC1F00C5
:1035A00000FC1F001FFC1004000010041FFC0C0492
:1035B000030000E010181FFC100007F008081004BA
:1035C00010041004080807F0000010041FFC108409
:1035D0001080108010800F00000007F008181024E1
:1035E0001024101C080A07F2000010041FFC11042C
:1035F000110011C011300E0C000400000E1C11044B
:103600001084108410441C380000180010001004AE
:103610001FFC100410001800000010001FF8100418
:103620000004000410041FF8100010001E0011E038
:10363000001C007013801C0010001FC0103C00E034
:103640001F0000E0103C1FC000001004180C1634CE
:1036500001C001C01634180C100410001C00130423
:1036600000FC13041C00100000000804101C10646F
:10367000108413041C041018000000000000000057
:103680007FFE4002400240020000000030000C00BB
:1036900003800060001C00030000000040024002A4
:1036A00040027FFE0000000000000000000020003B
:1036B0004000400040002000000000010001000127
:1036C0000001000100010001000100004000400075
:1036D000200000000000000000000000009801240D
:1036E00001440144014400FC000410001FFC008858
:1036F00001040104008800700000000000700088D0
:10370000010401040104008800000000007000882A
:103710000104010411081FFC0004000000F801442A
:1037200001440144014400C80000000001040104F8
:103730000FFC1104110411001800000000D601292B
:103740000129012901C90106000010041FFC0084A1
:1037500001000100010400FC000400000104190440
:1037600019FC000400040000000000000003000138
:103770000101190119FE0000000010041FFC0024C3
:10378000004001B4010C010400000000100410040A
:103790001FFC0004000400000000010401FC0104FF
:1037A000010001FC0104010000FC010401FC008493
:1037B00001000100010400FC0004000000F8010405
:1037C00001040104010400F80000010101FF00856B
:1037D00001040104008800700000000000700088EF
:1037E00001040104010501FF00010104010401FCC1
:1037F00000840104010001800000000000CC0124CD
:1038000001240124012401980000000001000100AE
:1038100007F80104010400000000010001F80004A1
:1038200000040004010801FC000401000180017093
:10383000000C001001600180010001F0010C00305B
:1038400001C00030010C01F0010000000104018CF6
:1038500000740170018C01040000010101810171FB
:10386000000E001801600180010000000184010CBD
:10387000013401440184010C00000000000000003C
:10388000000001003EFC4002400200000000000079
:103890000000FFFF000000000000000040024002A6
:1038A0003EFC0100000000000000000060008000FD
:1038B00080004000400020002000000000000000C8
:1038C00000000000000000000000000000000000F8
:1038D00000000000000000000000000000000000E8
:1038E000000000000000000000000000000F803811
:1038F0000FFE380F803800000000000000000000BC
:1039000000000000000000000100000600000C00A4
:10391000003800003100000600000C0000380000F4
:103920003000000000000000000061800067F80720
:10393000F980006180006180006180006180006723
:10394000F807F9800061800000000000000000001E
:1039500001C0E003E0F00630080418081FFFFE0471
:103960000E080787F00381E000000000000001F06E
:1039700000060C00040408060C7001F9C0000E00DB
:10398000003BE000EC18070808040C180003E000F6
:1039900000000001E00007F003F818041C080417F9
:1039A0000807E1D003C0E00023B0003C0800200875
:1039B0000000100000000000000100003100003293
:1039C00000001C00000000000000000000000000DB
:1039D00000000000000000000000000000000000E7
:1039E000000000000000000000007F0001FFC00791
:1039F00080F00C00181000042000020000000000FD
:103A0000002000021000040C00180780F001FFC025
:103A1000007F000000000000000000000000000027
:103A20000000000000004200006600006600003C4C
:103A30000000180003FFC0001800003C00006600F2
:103A400000660000420000000000080000080000BE
:103A5000080000080000080001FFC000080000087E
:103A6000000008000008000008000000000000013D
:103A700000003100003200001C00000000000000C7
:103A80000000000000000000000000000000000036
:103A900000000800000800000800000800000800FE
:103AA00000080000080000080000080000080000EE
:103AB0000000000000000000000038000038000096
:103AC00038000000000000000000000000000000BE
:103AD00000000000000000000000000600001C00C4
:103AE0000070000180000E0000380000C0000700D8
:103AF000001C0000300000000000000000007F807B
:103B000001FFE003807006001804000804000806A6
:103B1000001803807001FFE0007F800000000000BB
:103B20000000000001000801000801000803FFF880
:103B300007FFF8000008000008000008000000006F
:103B4000000000000001C03802C0580400980401C1
:103B500018040218040418061C1803F81801E0F8E9
:103B600000000000000000000001C0E003C0F004FD
:103B7000000804080804080806180803F41801E7F8
:103B8000F00001E000000000000000000000030061
:103B9000000D00001100006100008108030108070A
:103BA000FFF80FFFF8000108000108000000000006
:103BB000000000E007FCD006080806100806100800
:103BC000061008061838060FF00607C000000000AF
:103BD0000000000000003F8001FFE0038430020885
:103BE00018041008041008041008071810030FF038
:103BF0000007C000000000000000000003C0000734
:103C000000000600000600F80607F806180006E0A7
:103C10000007000006000000000000000001E1E0D5
:103C200003F7F0063410041808041808040C0804FC
:103C30000C0806161803F3F001C1E00000000000B4
:103C40000000F80003FC30030638040208040208F0
:103C50000402080404100308F001FFC0007F000004
:103C60000000000000000000000000000000000054
:103C7000000070380070380070380000000000004C
:103C80000000000000000000000000000000000034
:103C9000000000000000301A00301C00000000008E
:103CA0000000000000000000000000000000000014
:103CB0000008000014000022000041000080800184
:103CC000004002002004001008000800000000006E
:103CD000000021000021000021000021000021003F
:103CE000002100002100002100002100002100002F
:103CF000000000000000000008000804001002009E
:103D000020010040008080004100002200001400DB
:103D100000080000000000000003C00004C0000410
:103D20000000080038080F380808380810000C3068
:103D30000007E00003C000000000000000003F801A
:103D400000FFE0038070020F1006708804C0880432
:103D50008308047F8802C09003012000FE40000019
:103D6000080000180001F8003E0801C20007020028
:103D700007E20000FE00001FC80001F80000380044
:103D8000000804000807FFF807FFF8040808040803
:103D90000804080804080806180803F41801E7F0E6
:103DA0000001E0000000000000003F8001FFE00390
:103DB00080700200180400080400080400080400D1
:103DC000100600200780C000000004000807FFF86C
:103DD00007FFF804000804000804000804001802A3
:103DE000001003807001FFE0007F800000000400ED
:103DF0000807FFF807FFF804080804080804080883
:103E0000040808043E0804000806001801006000C9
:103E1000000004000807FFF807FFF804080804087A
:103E200000040800040800043E000600000600002C
:103E3000018000000000000000003F8001FFE0035F
:103E40008070060018040008040208040208020337
:103E5000F00783F000020000020004000807FFF8EA
:103E600007FFF80408080008000008000008000028
:103E7000080004080807FFF807FFF804000800001E
:103E80000000000004000804000804000807FFF810
:103E900007FFF80400080400080400080000000000
:103EA0000000000000000006000007000001040000
:103EB0000104000104000307FFFE07FFFC040000EB
:103EC00004000004000004000807FFF807FFF804DE
:103ED0000C08001800003E0004C7800503C8060057
:103EE000F804003804001800000804000807FFF870
:103EF00007FFF804000800000800000800000800A0
:103F00000008000008000018000060000000040025
:103F10000807FFF807800807FC00007FC00003F8CF
:103F20000007C000780007800807FFF807FFF804C3
:103F3000000804000807FFF807000803C00000E0BD
:103F400000003800001E000007000001C00400F05F
:103F500007FFF8040000000000007F8001FFE0037D
:103F6000807006001804000804000806001803000A
:103F70003001FFE0007F8000000004000807FFF828
:103F800007FFF80404080404000404000404000407
:103F90000400060C0003F80001F00000000000001F
:103FA00000007F8001FFE003807006008804008825
:103FB0000400C806003C03003E01FFE6007F8400C9
:103FC000000004000807FFF807FFF80408080408C9
:103FD00000040C00040F00040BC00610F003F038BE
:103FE00001E00800000800000001E0F803F03006DE
:103FF0003010041808041808040C08040C08020601
:10400000180207F00781E0000000018000060000B0
:1040100004000004000004000807FFF807FFF8048C
:1040200000080400000400000600000180000400F5
:104030000007FFE007FFF004001800000800000878
:1040400000000800000800000804001007FFE0045A
:10405000000004000006000007E00007FE00041F47
:10406000E00001F80000380001E0043E0007C00055
:1040700006000004000004000007E00007FFC00481
:104080001FF80007C007F80007FF80043FF800078B
:10409000C004F8000700000400000000000400084D
:1040A00006001807C07805F1C8003E00001F800414
:1040B00063E80780F8060018040008000000040008
:1040C0000006000007800007E008047C08001FF8D5
:1040D0000007F800180804E00807000006000004C4
:1040E00000000000000100080600380400F8040386
:1040F000E8040F08047C0805F00807C0080700184A
:10410000040060000000000000000000000000004B
:1041100000000000003FFFFE2000022000022000FF
:104120000220000220000200000000000000000049
:1041300008000007000000C0000038000006000072
:1041400001C000003000000E00000100000000006F
:1041500000000000200002200002200002200002D7
:104160002000023FFFFE00000000000000000000F1
:104170000000000000000000000000080000100027
:104180000030000020000030000010000008000097
:10419000000000000000000001000001000001001C
:1041A000000100000100000100000100000100000A
:1041B00001000001000001000001000000000000FB
:1041C000000000200000200000100000100000008F
:1041D00000000000000000000000000000000000DF
:1041E000000000F00019F8001B1800220800260843
:1041F000002408002410003FF8001FF80000080009
:10420000001800000004000007FFF80FFFF000187E
:1042100018001008002008002008003018001FF0C7
:10422000000FC00000000000000007C0001FF000E9
:104230001830002008002008002008003C08001C5E
:10424000100000600000000000000000000007C037
:10425000001FF00038180020080020080020080483
:10426000101007FFF80FFFF0000010000000000022
:10427000000000000007C0001FF0001230002218EC
:10428000002208002208003208001E10000E200044
:10429000000000000000200000200800200801FFAE
:1042A000F803FFF80620080420080420080720006F
:1042B00003000000000000000000000E000E6E0071
:1042C0001FF30031B10020B10020B1003191001F77
:1042D00013002E1E00200E00300000000004000815
:1042E00007FFF80FFFF80010080020000020000072
:1042F0002008003FF8001FF8000008000000000040
:1043000000000000002008002008002008063FF8F8
:10431000063FF80000080000080000080000000048
:104320000000000000000000000003000003002067
:1043300001002001002003063FFE063FFC000000B4
:1043400000000000000000000004000807FFF80F54
:10435000FFF8000188000300002FC00038F800209B
:1043600038002008000008000000000000000000E5
:1043700004000804000804000807FFF80FFFF80015
:1043800000080000080000080000000000000020F5
:1043900008003FF8003FF8001008002000003FF838
:1043A000003FF8001008002000003FF8003FF80030
:1043B0000008000000002008003FF8003FF800104F
:1043C00008001000002000002008003FF8001FF83F
:1043D0000000080000000000000007C0000FF0000F
:1043E00018300030080020080020080030080018AD
:1043F00030000FF00007C0000000000000002001A6
:10440000003FFF003FFF00101100200900200800BE
:104410002008003038001FF0000FC000000000002E
:10442000000007C0001FF000381800200800200816
:10443000002009001011001FFF003FFF00000100D5
:104440000000002008002008002008003FF8003F7E
:10445000F8000808001008002008002000003000C4
:10446000003000000000000000000000000C780098
:104470001E180033080023080021080021880021AD
:10448000980030F0003860000000000000002000BC
:1044900000200000200000FFF003FFF800200800CB
:1044A000200800200800003000000000000000008C
:1044B00000002000003FF0007FF800001800000816
:1044C000000008002010003FF8007FF000001000FE
:1044D0000000000000002000003000003C00003F11
:1044E000800023F0000078000070002380003C0072
:1044F000003000002000002000003C00003FE000F1
:1045000023F80000E0002700003E00003FE000210B
:10451000F80001E0003E000020000000000020083C
:10452000002008003838003E680027800003C800DB
:104530002CF8003838002018002008000000000087
:1045400000002000003003003C01003F830023EC0A
:10455000000070002380003C0000200000200000CC
:104560000000000000000000003808002038002093
:10457000F80023E8002F88003E08003808002018C3
:1045800000007000000000000000000000000000BB
:1045900000000000000008000014001FF7FC3000BD
:1045A00006200002000000000000000000000000E3
:1045B000000000000000000000000000FFFFFF00FE
:1045C00000000000000000000000000000000000EB
:1045D000000000002000023000061FF7FC0014005D
:1045E00000080000000000000000000000000000C3
:1045F00000000000001800006000004000004000C3
:10460000002000001000000800000400000400006A
:104610000C000010000000003846000800000020D8
:10462000780200002801000888470008780200206E
:10463000680C000084010008011D84A24A0480095E
:10464000010203040607080905206009D0073A01A2
:10465000042808C1814001C0804104690C2908E98F
:1046600018A91C091A30091638093660092E700974
:104670002F6000FF00C0C101C30302C2C60607C706
:1046800005C5C404CC0C0DCD0FCFCE0E0ACACB0B82
:10469000C90908C8D81819D91BDBDA1A1EDEDF1FB2
:1046A000DD1D1CDC14D4D515D71716D6D21213D3A2
:1046B00011D1D010F03031F133F3F23236F6F73752
:1046C000F53534F43CFCFD3DFF3F3EFEFA3A3BFB42
:1046D00039F9F83828E8E929EB2B2AEAEE2E2FEFF2
:1046E0002DEDEC2CE42425E527E7E62622E2E32362
:1046F000E12120E0A06061A163A3A26266A6A76792
:10470000A56564A46CACAD6DAF6F6EAEAA6A6BAB01
:1047100069A9A86878B8B979BB7B7ABABE7E7FBF31
:104720007DBDBC7CB47475B577B7B67672B2B37321
:10473000B17170B0509091519353529296565797D1
:10474000559594549C5C5D9D5F9F9E5E5A9A9B5BC1
:1047500099595898884849894B8B8A4A4E8E8F4F71
:104760008D4D4C8C448485458747468682424383E1
:1047700041818042402D01020304043009060708EC
:08478000090204060800000014
:04000005080000ED02
:00000001FF
